:100000000C9462000C948A000C948A000C948A0070
:100010000C948A000C948A000C948A000C948A0038
:100020000C948A000C948A000C948A000C948A0028
:100030000C948A000C948A000C948A000C948A0018
:100040000C949F030C948A000C946D030C9447034A
:100050000C948A000C948A000C948A000C948A00F8
:100060000C948A000C948A000000000023002600F3
:10007000290000000008000201000003040700003E
:1000800000000000000000000000250028002B00F8
:1000900000000000240027002A00040404040404D3
:1000A0000404020202020202030303030303010227
:1000B00004081020408001020408102001020408F6
:1000C0001020E90311241FBECFEFD8E0DEBFCDBF63
:1000D00011E0A0E0B1E0EAE1F3E102C005900D9289
:1000E000A033B107D9F721E0A0E3B1E001C01D9230
:1000F000A73EB207E1F710E0C2E6D0E004C02197C6
:10010000FE010E946008C136D107C9F70E94280489
:100110000C948B090C940000AF92BF92CF92DF92A7
:10012000EF92FF920F931F93CF93DF936C017B01AC
:100130008B01040F151FEB015E01AE18BF08C0173D
:10014000D10759F06991D601ED91FC910190F081B0
:10015000E02DC6010995892B79F7C501DF91CF9173
:100160001F910F91FF90EF90DF90CF90BF90AF90D5
:100170000895FC01538D448D252F30E0842F90E0AD
:10018000821B930B541710F0CF9608950197089592
:10019000FC01918D828D981761F0A28DAE0FBF2F5B
:1001A000B11D5D968C91928D9F5F9F73928F90E0B1
:1001B00008958FEF9FEF0895FC01918D828D981720
:1001C00031F0828DE80FF11D858D90E008958FEF5D
:1001D0009FEF0895FC01918D228D892F90E0805C26
:1001E0009F4F821B91098F739927089589E391E0AE
:1001F0000E94EA0021E0892B09F420E0822F089573
:1002000080E090E0892B29F00E94F60081110C9487
:1002100000000895FC01A48DA80FB92FB11DA35AA9
:10022000BF4F2C91848D90E001968F739927848F16
:10023000A689B7892C93A089B1898C918370806439
:100240008C93938D848D981306C00288F389E02DDA
:1002500080818F7D80830895EF92FF920F931F938B
:10026000CF93DF93EC0181E0888F9B8D8C8D981369
:100270001AC0E889F989808185FF15C09FB7F89475
:10028000EE89FF896083E889F989808183708064C1
:1002900080839FBF81E090E0DF91CF911F910F910C
:1002A000FF90EF900895F62E0B8D10E00F5F1F4F1B
:1002B0000F731127E02E8C8D8E110CC00FB607FC2A
:1002C000FACFE889F989808185FFF5CFCE010E94B8
:1002D0000A01F1CFEB8DEC0FFD2FF11DE35AFF4F1B
:1002E000F0829FB7F8940B8FEA89FB898081806246
:1002F000CFCFCF93DF93EC01888D8823B9F0AA8903
:10030000BB89E889F9898C9185FD03C0808186FDD0
:100310000DC00FB607FCF7CF8C9185FFF2CF80811F
:1003200085FFEDCFCE010E940A01E9CFDF91CF9189
:100330000895833081F028F4813099F08230A9F05B
:1003400008958730A9F08830C9F08430B1F48091E5
:1003500080008F7D03C0809180008F778093800024
:10036000089584B58F7784BD089584B58F7DFBCFC4
:100370008091B0008F778093B00008958091B00095
:100380008F7DF9CFCF93DF93282F30E0F901EE581E
:10039000FF4F8491F901E255FF4FD491F901E656E0
:1003A000FF4FC491CC23A1F081110E949901EC2F41
:1003B000F0E0EE0FFF1FE859FF4FA591B491EC91CB
:1003C000ED2381E090E009F480E0DF91CF91089582
:1003D00080E090E0FACF1F93CF93DF93282F30E097
:1003E000F901EE58FF4F8491F901E255FF4FD49186
:1003F000F901E656FF4FC491CC23A9F0162F8111C5
:100400000E949901EC2FF0E0EE0FFF1FEA57FF4F1B
:10041000A591B4918FB7F894EC91111108C0D095C3
:10042000DE23DC938FBFDF91CF911F910895DE2BE8
:10043000F8CF3FB7F8948091350190913601A091A3
:100440003701B091380126B5A89B05C02F3F19F0A0
:100450000196A11DB11D3FBFBA2FA92F982F882744
:10046000BC01CD01620F711D811D911D42E0660F1F
:10047000771F881F991F4A95D1F708958F929F92F1
:10048000AF92BF92CF92DF92EF92FF926B017C010D
:100490000E9419024B015C01C114D104E104F10472
:1004A000B9F00E941902681979098A099B09683E06
:1004B00073408105910580F321E0C21AD108E1085B
:1004C000F10888EE880E83E0981EA11CB11CE4CFD1
:1004D000FF90EF90DF90CF90BF90AF909F908F9064
:1004E00008950895FF920F931F93CF93DF93F82EF3
:1004F000062FC7E0D0E010E061E0802F0E94EB0102
:100500008F2D0E94C2010C2E01C0880F0A94EAF7B9
:10051000182B60E0802F0E94EB01219768F7812F54
:10052000DF91CF911F910F91FF900895EF92FF926D
:100530000F931F93CF93DF938091D9010E94C20143
:10054000892B31F060E070E0CB010E943E02F4CFD5
:10055000DFB7F8946091D8018091D9010E947202AE
:10056000082F6091D8018091D9010E947202C82F92
:100570006091D8018091D9010E947202182FF12C4C
:10058000E12C8091DA018E151F0479F070F061E0A2
:100590008091D8010E94EB0160E08091D8010E9417
:1005A000EB018FEFE81AF80AECCFDFBF6C2F70E099
:1005B00090E080E0982F872F762F6627802B612B85
:1005C000000F000B10E030E020E0302F2227112731
:1005D0000027602B712B822B932BDF91CF911F91E2
:1005E0000F91FF90EF900895FC0101900020E9F732
:1005F0003197AF01481B590BBC0189E391E00C9482
:100600008C008F929F92AF92BF920F931F93CF93C4
:10061000DF93CDB7DEB7A1970FB6F894DEBF0FBE5C
:10062000CDBF19A2423008F44AE08E010F5D1F4F82
:10063000842E912CB12CA12CA50194010E941F089D
:10064000E62FB901CA01EA30F4F4E05DD801EE9377
:100650008D01232B242B252B79F790E080E0109738
:1006600019F0CD010E94F402A1960FB6F894DEBFF6
:100670000FBECDBFDF91CF911F910F91BF90AF9073
:100680009F908F900895E95CE1CF0C9402091F922E
:100690000F920FB60F9211242F933F934F935F93B6
:1006A0006F937F938F939F93AF93BF93EF93FF933A
:1006B00089E391E00E940A01FF91EF91BF91AF9110
:1006C0009F918F917F916F915F914F913F912F916A
:1006D0000F900FBE0F901F9018951F920F920FB69C
:1006E0000F9211242F938F939F93EF93FF93E09199
:1006F0004901F0914A018081E0914F01F091500150
:1007000082FD1BC09081809152018F5F8F73209179
:100710005301821741F0E0915201F0E0E75CFE4F97
:10072000958F80935201FF91EF919F918F912F911F
:100730000F900FBE0F901F9018958081F4CF1F92DD
:100740000F920FB60F9211242F933F938F939F9385
:10075000AF93BF938091310190913201A091330109
:10076000B09134013091300123E0230F2D3758F53B
:100770000196A11DB11D209330018093310190930A
:100780003201A0933301B0933401809135019091EF
:100790003601A0913701B09138010196A11DB11D1C
:1007A0008093350190933601A0933701B0933801BF
:1007B000BF91AF919F918F913F912F910F900FBE5D
:1007C0000F901F90189526E8230F0296A11DB11DCA
:1007D000D2CFE9E3F1E01382128288EE93E0A0E049
:1007E000B0E084839583A683B7838AE091E0918308
:1007F000808385EC90E09587848784EC90E09787F0
:10080000868780EC90E0918B808B81EC90E0938BDD
:10081000828B82EC90E0958B848B86EC90E0978BBA
:10082000868B118E128E138E148EE6EDF1E08CE124
:1008300091E091838083158216821782108680E072
:1008400090E0A0E8BFE381879287A387B4870895EB
:10085000789484B5826084BD84B5816084BD85B59B
:10086000826085BD85B5816085BD80916E008160A7
:1008700080936E001092810080918100826080934D
:10088000810080918100816080938100809180004F
:100890008160809380008091B10084608093B1007A
:1008A0008091B00081608093B00080917A00846074
:1008B00080937A0080917A00826080937A008091A0
:1008C0007A00816080937A0080917A0080688093BA
:1008D0007A001092C100E0914901F0914A0192E042
:1008E0009083E0914501F09146011082E09147012B
:1008F000F091480183E3808310925101E0914D0112
:10090000F0914E0186E08083E0914B01F0914C0123
:10091000808180618083E0914B01F0914C01808166
:1009200088608083E0914B01F0914C018081806868
:100930008083E0914B01F0914C0180818F7D808319
:1009400083E08093D8019093D901E1EBF0E024910A
:10095000EDE9F0E08491882399F090E0880F991FE9
:10096000FC01E057FF4FA591B491FC01EA57FF4FFE
:10097000859194918FB7F894EC91E22BEC938FBF13
:100980008091D90190E0FC01E255FF4F24918656F9
:100990009F4FFC0184918823C1F090E0880F991F3C
:1009A000FC01E057FF4FC591D491FC01EA57FF4F7E
:1009B000A591B4919FB7F8943881822F80958323B5
:1009C0008883EC91E22BEC939FBF81E08093DA0166
:1009D00080E090E8AEE0B5E48093DF019093E00121
:1009E000A093E101B093E201CAE0C12CD12C7601C1
:1009F0000E949602C60ED71EE81EF91E60E070E047
:100A0000CB010E943E02C15099F7C701B6012AE00E
:100A100030E040E050E00E944108CA01B9010E9464
:100A2000F8060E94C0066093DB017093DC0180939E
:100A3000DD019093DE01C0E0D0E00E9496026B01E0
:100A40007C0160E070E0CB010E943E028091DB01FE
:100A50009091DC01A091DD01B091DE01A70196012A
:100A6000281B390B4A0B5B0BCA01B9010E94F8061F
:100A70002091DF013091E0014091E1015091E201CC
:100A80000E944E066B017C014B015C01AC019B0195
:100A90000E941A088823C1F080E291E00E94F402CB
:100AA0008CE291E00E94F40268EC70E080E090E05B
:100AB0000E943E02209709F20E94F600882309F462
:100AC000BCCF0E940000B9CF26013701E89477F827
:100AD0002FEF3FEF4FE75FE7C301B2010E941A0813
:100AE00081110DC02FEF3FEF4FE75FE7C301B20168
:100AF0000E94490618161CF484E291E0CFCF2FEF34
:100B00003FEF4FE75FE4C701B6010E94A807181640
:100B10001CF488E291E0C2CF2FEF3FEF4FE75FEC8C
:100B2000C701B6010E94490687FDF3CF20E030E0FF
:100B3000A901C701B6010E94490687FF0BC06DE2FB
:100B400089E391E00E942C0146015701B7FAB09465
:100B5000B7F8B0942DEC3CEC4CE45DE3C501B40176
:100B60000E94DD054B015C010E94C7066B017C0100
:100B70000E94F6069B01AC01C501B4010E94DC0590
:100B80004B015C014AE0C701B6010E9401036EE21D
:100B900089E391E00E942C0120E030E040E251E442
:100BA000C501B4010E94AD070E94C70690E080E035
:100BB0004AE00E94010374CF5058BB27AA270E9425
:100BC000F4050C946E070E94600738F00E946707D6
:100BD00020F039F49F3F19F426F40C945D070EF4CD
:100BE000E095E7FB0C945707E92F0E947F0758F325
:100BF000BA17620773078407950720F079F4A6F502
:100C00000C94A1070EF4E0950B2EBA2FA02D0B012A
:100C1000B90190010C01CA01A0011124FF27591B41
:100C200099F0593F50F4503E68F11A16F040A22F47
:100C3000232F342F4427585FF3CF469537952795B8
:100C4000A795F0405395C9F77EF41F16BA0B620BB7
:100C5000730B840BBAF09150A1F0FF0FBB1F661FFE
:100C6000771F881FC2F70EC0BA0F621F731F841F41
:100C700048F4879577956795B795F7959E3F08F067
:100C8000B0CF9395880F08F09927EE0F9795879529
:100C900008950E94330708F481E008950E946206D7
:100CA0000C946E070E94670758F00E94600740F09E
:100CB00029F45F3F29F00C94570751110C94A207B7
:100CC0000C945D070E947F0768F39923B1F35523C5
:100CD00091F3951B550BBB27AA276217730784074F
:100CE00038F09F5F5F4F220F331F441FAA1FA9F3E5
:100CF00035D00E2E3AF0E0E832D091505040E695D3
:100D0000001CCAF72BD0FE2F29D0660F771F881F33
:100D1000BB1F261737074807AB07B0E809F0BB0B26
:100D2000802DBF01FF2793585F4F3AF09E3F51053A
:100D300078F00C9457070C94A2075F3FE4F3983EB9
:100D4000D4F3869577956795B795F7959F5FC9F723
:100D5000880F911D9695879597F90895E1E0660FA4
:100D6000771F881FBB1F621773078407BA0720F01D
:100D7000621B730B840BBA0BEE1F88F7E095089586
:100D80000E94C7066894B1110C94A20708950E94AE
:100D9000870788F09F5798F0B92F9927B751B0F07F
:100DA000E1F0660F771F881F991F1AF0BA95C9F7EF
:100DB00014C0B13091F00E94A107B1E008950C94E5
:100DC000A107672F782F8827B85F39F0B93FCCF398
:100DD000869577956795B395D9F73EF4909580956C
:100DE000709561957F4F8F4F9F4F0895E89409C08C
:100DF00097FB3EF490958095709561957F4F8F4F4E
:100E00009F4F9923A9F0F92F96E9BB279395F69563
:100E1000879577956795B795F111F8CFFAF4BB0FE1
:100E200011F460FF1BC06F5F7F4F8F4F9F4F16C045
:100E3000882311F096E911C0772321F09EE8872FCF
:100E4000762F05C0662371F096E8862F70E060E08B
:100E50002AF09A95660F771F881FDAF7880F969504
:100E6000879597F90895990F0008550FAA0BE0E8A8
:100E7000FEEF16161706E807F907C0F0121613065C
:100E8000E407F50798F0621B730B840B950B39F49C
:100E90000A2661F0232B242B252B21F408950A2602
:100EA00009F4A140A6958FEF811D811D089597F942
:100EB0009F6780E870E060E008959FEF80EC089500
:100EC00000240A9416161706180609060895002429
:100ED0000A9412161306140605060895092E0394A3
:100EE000000C11F4882352F0BB0F40F4BF2B11F417
:100EF00060FF04C06F5F7F4F8F4F9F4F089557FD76
:100F00009058440F551F59F05F3F71F04795880F77
:100F100097FB991F61F09F3F79F08795089512160E
:100F200013061406551FF2CF4695F1DF08C01616BA
:100F300017061806991FF1CF86957105610508946B
:100F40000895E894BB2766277727CB0197F9089582
:100F50000E94330708F48FEF08950E94C0070C9495
:100F60006E070E94600738F00E94670720F0952303
:100F700011F00C9457070C945D0711240C94A207F0
:100F80000E947F0770F3959FC1F3950F50E0551FA6
:100F9000629FF001729FBB27F00DB11D639FAA27CE
:100FA000F00DB11DAA1F649F6627B00DA11D661F1D
:100FB000829F2227B00DA11D621F739FB00DA11D3E
:100FC000621F839FA00D611D221F749F3327A00DF8
:100FD000611D231F849F600D211D822F762F6A2F94
:100FE00011249F5750409AF0F1F088234AF0EE0FF9
:100FF000FF1FBB1F661F771F881F91505040A9F726
:101000009E3F510580F00C9457070C94A2075F3F58
:10101000E4F3983ED4F3869577956795B795F79561
:10102000E7959F5FC1F7FE2B880F911D96958795D9
:1010300097F908950E943307880B990B0895A1E250
:101040001A2EAA1BBB1BFD010DC0AA1FBB1FEE1F42
:10105000FF1FA217B307E407F50720F0A21BB30B8D
:10106000E40BF50B661F771F881F991F1A9469F709
:1010700060957095809590959B01AC01BD01CF0165
:101080000895052E97FB1EF400940E94580857FD02
:1010900007D00E941F0807FC03D04EF40C94580898
:1010A00050954095309521953F4F4F4F5F4F089594
:1010B00090958095709561957F4F8F4F9F4F0895C4
:1010C000EE0FFF1F0590F491E02D09940F931F93ED
:1010D000CF93DF938230910510F482E090E0E091AD
:1010E000E501F091E60130E020E0B0E0A0E03097CB
:1010F00099F42115310509F44AC0281B390B243015
:101100003105D8F58A819B816115710589F1FB0153
:1011100093838283FE0111C040815181028113813A
:1011200048175907E0F04817590799F4109761F0EC
:1011300012960C93129713961C933296CF01DF915F
:10114000CF911F910F9108950093E5011093E6014F
:10115000F4CF2115310551F04217530738F0A9019A
:10116000DB019A01BD01DF01F801C1CFEF01F9CF29
:101170009093E6018093E501CDCFFE01E20FF31FCE
:10118000819391932250310939832883D7CF2091BD
:10119000E3013091E401232B41F4209102013091CD
:1011A00003013093E4012093E30120910001309189
:1011B00001012115310541F42DB73EB740910401DD
:1011C00050910501241B350BE091E301F091E401FE
:1011D000E217F307A0F42E1B3F0B2817390778F00E
:1011E000AC014E5F5F4F2417350748F04E0F5F1F6D
:1011F0005093E4014093E301819391939FCFF0E0FA
:10120000E0E09CCFCF93DF930097E9F0FC013297A9
:1012100013821282A091E501B091E601ED0130E068
:1012200020E01097A1F420813181820F931F20913B
:10123000E3013091E4012817390709F061C0F09308
:10124000E401E093E301DF91CF910895EA01CE1725
:10125000DF07E8F54A815B819E0141155105B1F731
:10126000E901FB83EA8349915991C40FD51FEC171B
:10127000FD0761F4808191810296840F951FE90139
:1012800099838883828193819B838A83F0E0E0E065
:1012900012968D919C9113970097B9F52D913C91E1
:1012A0001197CD010296820F931F2091E301309197
:1012B000E4012817390739F6309751F51092E60105
:1012C0001092E501B093E401A093E301BCCFD38376
:1012D000C28340815181840F951FC817D90761F4DB
:1012E0004E5F5F4F88819981480F591F518340831A
:1012F0008A819B81938382832115310509F0B0CFC8
:10130000F093E601E093E5019ECFFD01DC01C0CF43
:0A13100013821282D7CFF894FFCFAA
:10131A000000E7018000000000002C018C00B900E9
:10132A007901EA00C800DC000000000071024503F0
:10133A006E616E00696E66006F7666000D0A0000C7
:00000001FF
