:100000000C9439010C946A010C946A010C946A01F5
:100010000C946A010C946A010C946A010C946A01B4
:100020000C946A010C946A010C946A010C946A01A4
:100030000C946A010C946A010C946A010C946A0194
:100040000C946A010C946A010C946A010C946A0184
:100050000C946A010C946A010C946A010C943E069B
:100060000C946A010C9408060C94DE050C946A0149
:100070000C946A010C946A010C946A010C946A0154
:100080000C946A010C946A010C946A010C946A0144
:100090000C946A010C946A010C946A010C946A0134
:1000A0000C946A010C946A010C946A010C946A0124
:1000B0000C946A010C946A010C946A010C946A0114
:1000C0000C946A010C946A010C946A010C946A0104
:1000D0000C946A010C946A010C946A010C946A01F4
:1000E0000C946A010C94CC020C94F9020C946C01EF
:1000F0000C94CA010C9488060C94C4020C94A801B8
:100100000C94C8020C94D0020C94BE020C9402020F
:100110000C94E7020C94EB020C94DC050C94BC01EB
:100120000C94D3020C94D9020C94F5020C9499010E
:100130000C94DD020C94F1020C94FF020C94B603B3
:100140000C94FE020C94E3020C9403030C944F02F3
:10015000000020002300260029002C002F00320080
:100160000001000003010601090100000A0B020959
:100170000C0D0E0807030401000000000000000041
:10018000000000000000000000000000000000006F
:10019000000000000000121110000000000000002C
:1001A000000000000000000000000000000000004F
:1001B00000002200250028002B002E003100340012
:1001C00002010000050108010B01000021002400CC
:1001D00027002A002D003000330001010000040137
:1001E00007010A01050505050705080808080202B8
:1001F00002020A0A080804040404010101010101C1
:1002000001010303030303030303040707070C0CA3
:100210000C0C0C0C0C0C020202020606060606066A
:1002200006060B0B0B0B0B0B0B0B0102102020080F
:100230000810204010204080020102010804020141
:1002400001020408102040808040201008040201B0
:100250008004020180402010080402010804020109
:100260000102040810204080010204081020408090
:10027000880611241FBECFEFD1E2DEBFCDBF00E064
:100280000CBF12E0A0E0B2E0EAE1F9E100E00BBF50
:1002900002C007900D92A63EB107D9F723E0A6EE63
:1002A000B2E001C01D92AD39B207E1F711E0C9E338
:1002B000D1E000E006C021970109802FFE010E94D5
:1002C0005E0BC833D10780E00807A9F70E94C70674
:1002D0000C948B0C0C940000AF92BF92CF92DF92E3
:1002E000EF92FF920F931F93CF93DF936C017B01EB
:1002F0008B01040F151FEB015E01AE18BF08C0177C
:10030000D10759F06991D601ED91FC910190F081EE
:10031000E02DC6011995892B79F7C501DF91CF91A1
:100320001F910F91FF90EF90DF90CF90BF90AF9013
:100330000895FC01538D448D252F30E0842F90E0EB
:10034000821B930B541710F0CF96089501970895D0
:10035000FC01918D828D981761F0A28DAE0FBF2F99
:10036000B11D5D968C91928D9F5F9F73928F90E0EF
:1003700008958FEF9FEF0895FC01918D828D98175E
:1003800031F0828DE80FF11D858D90E008958FEF9B
:100390009FEF0895FC01918D228D892F90E0805C64
:1003A0009F4F821B91098F73992708958FEE92E0DA
:1003B0000E94CA0121E0892B09F420E0822F0895D0
:1003C000FC01A48DA80FB92FB11DA35ABF4F2C91CA
:1003D000848D90E001968F739927848FA689B789C1
:1003E0002C93A089B1898C91837080648C93938DB8
:1003F000848D981306C00288F389E02D80818F7D5B
:1004000080830895EF92FF920F931F93CF93DF9312
:10041000EC0181E0888F9B8D8C8D98131AC0E88940
:10042000F989808185FF15C09FB7F894EE89FF890F
:100430006083E889F98980818370806480839FBFAD
:1004400081E090E0DF91CF911F910F91FF90EF90AD
:100450000895F62E0B8D10E00F5F1F4F0F731127BD
:10046000E02E8C8D8E110CC00FB607FCFACFE889F8
:10047000F989808185FFF5CFCE010E94E001F1CF9F
:10048000EB8DEC0FFD2FF11DE35AFF4FF0829FB76C
:10049000F8940B8FEA89FB8980818062CFCFCF935C
:1004A000DF93EC01888D8823B9F0AA89BB89E8899C
:1004B000F9898C9185FD03C0808186FD0DC00FB642
:1004C00007FCF7CF8C9185FFF2CF808185FFEDCFC0
:1004D000CE010E94E001E9CFDF91CF91089580E045
:1004E00090E0892B29F00E94D60181110E94000022
:1004F00080E090E0892B49F080E090E0892B29F0A2
:100500000E94000081110E94000080E090E0892B91
:1005100049F080E090E0892B29F00E9400008111D1
:100520000E94000080E090E0892B49F080E090E09C
:10053000892B29F00E94000081110C94000008957D
:100540008150823108F05AC0E82FF0E08827E45546
:10055000FD4F8F4F0C945E0BCC02D002BE02C40242
:10056000C802FE02D302D902DD02E302E702EB0277
:10057000F102F502FE02F902FF02030380918000FE
:100580008F77809380000895809180008F7DF9CFD0
:1005900080918000877FF5CF84B58F7784BD0895E3
:1005A00084B58F7DFBCF8091B0008F778093B000B2
:1005B00008958091B0008F7DF9CF809190008F7762
:1005C000809390000895809190008F7DF9CF809165
:1005D0009000877FF5CF8091A0008F778093A00057
:1005E00008958091A0008F7DF9CF8091A000877F32
:1005F000F5CF809120018F7780932001089580911D
:1006000020018F7DF9CF80912001877FF5CFCF9397
:10061000DF93282F30E0F901E659FE4F8491F9016C
:10062000E65DFD4FD491F901EC51FE4FC491CC230E
:10063000A1F081110E94A002EC2FF0E0EE0FFF1F4D
:10064000E05BFE4FA591B491EC91ED2381E090E049
:1006500009F480E0DF91CF91089580E090E0FACF37
:100660001F93CF93DF93282F30E0F901E659FE4F17
:100670008491F901E65DFD4FD491F901EC51FE4FF3
:10068000C491CC23A9F0162F81110E94A002EC2F57
:10069000F0E0EE0FFF1FE055FE4FA591B4918FB72C
:1006A000F894EC91111108C0D095DE23DC938FBF34
:1006B000DF91CF911F910895DE2BF8CF3FB7F894CB
:1006C0008091EB029091EC02A091ED02B091EE02CC
:1006D00026B5A89B05C02F3F19F00196A11DB11D9D
:1006E0003FBFBA2FA92F982F8827BC01CD01620FD9
:1006F000711D811D911D42E0660F771F881F991F94
:100700004A95D1F708958F929F92AF92BF92CF9260
:10071000DF92EF92FF926B017C010E945E034B011E
:100720005C01C114D104E104F104B9F00E945E033C
:10073000681979098A099B09683E7340810591050A
:1007400080F321E0C21AD108E108F10888EE880E92
:1007500083E0981EA11CB11CE4CFFF90EF90DF90C6
:10076000CF90BF90AF909F908F9008950895FF9283
:100770000F931F93CF93DF93F82E062FC7E0D0E09F
:1007800010E061E0802F0E9430038F2D0E9407034C
:100790000C2E01C0880F0A94EAF7182B60E0802F16
:1007A0000E943003219768F7812FDF91CF911F912D
:1007B0000F91FF900895EF92FF920F931F93CF93A5
:1007C000DF9380918F030E940703892B31F060E053
:1007D00070E0CB010E948303F4CFDFB7F8946091FF
:1007E0008E0380918F030E94B703082F60918E03C0
:1007F00080918F030E94B703C82F60918E03809170
:100800008F030E94B703182FF12CE12C80919003E5
:100810008E151F0479F070F061E080918E030E94C4
:10082000300360E080918E030E9430038FEFE81A5E
:10083000F80AECCFDFBF6C2F70E090E080E0982FDB
:10084000872F762F6627802B612B000F000B10E07F
:1008500030E020E0302F222711270027602B712B5A
:10086000822B932BDF91CF911F910F91FF90EF90EF
:100870000895CF92DF92EF92FF92CF93DF93C82F2C
:10088000C12CD12C7601D0E00E94DB03C60ED71E0E
:10089000E81EF91E60E070E0CB010E948303DF5F79
:1008A000CD13F2CF2C2F30E050E040E0C701B6016D
:1008B0000E943F0BCA01B901DF91CF91FF90EF90E9
:1008C000DF90CF900895FC0101900020E9F7319767
:1008D000AF01481B590BBC018FEE92E00C946C01E8
:1008E0008F929F92AF92BF920F931F93CF93DF93FC
:1008F000CDB7DEB7A1970FB6F894DEBF0FBECDBF60
:1009000019A2423008F44AE08E010F5D1F4F842E79
:10091000912CB12CA12CA50194010E941D0BE62F56
:10092000B901CA01EA30F4F4E05DD801EE938D011B
:10093000232B242B252B79F790E080E0109719F0DA
:10094000CD010E946304A1960FB6F894DEBF0FBEDE
:10095000CDBFDF91CF911F910F91BF90AF909F902E
:100960008F900895E95CE1CFCF93DF930E946304F9
:10097000EC0180E292E00E9463048C0F9D1FDF91E6
:10098000CF9108954F925F926F927F928F929F9234
:10099000AF92BF92CF92DF92EF92FF920F931F938D
:1009A000CF936B017C01742EAC019B010E94180B4C
:1009B000882399F083E292E0CF911F910F91FF90ED
:1009C000EF90DF90CF90BF90AF909F908F907F90EF
:1009D0006F905F904F900C94630446015701E89428
:1009E000B7F82FEF3FEF4FE75FE7C501B4010E9473
:1009F000180B81110DC02FEF3FEF4FE75FE7C501E7
:100A0000B4010E94470918161CF487E292E0D4CF83
:100A10002FEF3FEF4FE75FE4C701B6010E94A60A40
:100A200018161CF48BE292E0C7CF2FEF3FEF4FE791
:100A30005FECC701B6010E94470987FDF3CF20E0B4
:100A400030E0A901C701B6010E94470910E000E0AB
:100A500087FF0AC06DE28FEE92E00E9402028C01D5
:100A6000F7FAF094F7F8F094C0E060E070E080E00E
:100A70009FE37C1641F020E030E040E251E40E9428
:100A80004C09CF5FF6CFA70196010E94DB082B012E
:100A90003C010E94C5094B015C014AE00E947004C0
:100AA0007C01E00EF11ECC23C1F1C501B4010E940E
:100AB000F4099B01AC01C301B2010E94DA084B01A9
:100AC0005C016EE28FEE92E00E940202E80EF91ED7
:100AD000C15018F120E030E040E251E4C501B4011A
:100AE0000E94AB0A2B013C010E94C5094B01B12CAD
:100AF000A12C4AE0C501B4010E947004E80EF91E61
:100B0000C501B4010E94F4099B01AC01C301B2010B
:100B10000E94DA084B015C01DBCFC701CF911F9126
:100B20000F91FF90EF90DF90CF90BF90AF909F908C
:100B30008F907F906F905F904F900895CF93DF9349
:100B40000E94C204EC0180E292E00E9463048C0FD8
:100B50009D1FDF91CF9108950C946304CF92DF9293
:100B6000EF92FF92CF93DF936B017C01F7FE1FC0E2
:100B70006DE28FEE92E00E940202EC016627772779
:100B8000CB016C197D098E099F094AE00E9470040F
:100B9000C80FD91F80E292E00E9463048C0F9D1F52
:100BA000DF91CF91FF90EF90DF90CF9008954AE0D2
:100BB0000E947004EC01EECF0C94020C1F920F9275
:100BC0000FB60F9211240BB60F922F933F934F93B2
:100BD0005F936F937F938F939F93AF93BF93EF93A5
:100BE000FF938FEE92E00E94E001FF91EF91BF91A1
:100BF000AF919F918F917F916F915F914F913F91B5
:100C00002F910F900BBE0F900FBE0F901F90189555
:100C10001F920F920FB60F9211240BB60F922F93C3
:100C20008F939F93EF93FF93E091FF02F091000366
:100C30008081E0910503F091060382FD1DC0908143
:100C4000809108038F5F8F7320910903821741F011
:100C5000E0910803F0E0E151FD4F958F8093080388
:100C6000FF91EF919F918F912F910F900BBE0F905D
:100C70000FBE0F901F9018958081F2CF1F920F9298
:100C80000FB60F9211242F933F938F939F93AF939F
:100C9000BF938091E7029091E802A091E902B091A0
:100CA000EA023091E60223E0230F2D3758F5019632
:100CB000A11DB11D2093E6028093E7029093E80204
:100CC000A093E902B093EA028091EB029091EC02CA
:100CD000A091ED02B091EE020196A11DB11D80938D
:100CE000EB029093EC02A093ED02B093EE02BF9161
:100CF000AF919F918F913F912F910F900FBE0F90C9
:100D00001F90189526E8230F0296A11DB11DD2CF82
:100D1000EFEEF2E01382128288EE93E0A0E0B0E002
:100D200084839583A683B7838AE092E0918380834E
:100D300085EC90E09587848784EC90E097878687A0
:100D400080EC90E0918B808B81EC90E0938B828B98
:100D500082EC90E0958B848B86EC90E0978B868B71
:100D6000118E128E138E148EECE8F3E08CE192E07B
:100D700091838083158216821782108680E090E02E
:100D8000A0E8BFE381879287A387B487089578940A
:100D900084B5826084BD84B5816084BD85B5826080
:100DA00085BD85B5816085BD80916E008160809331
:100DB0006E0010928100809181008260809381009A
:100DC00080918100816080938100809180008160AA
:100DD000809380008091B10084608093B100809105
:100DE000B00081608093B000809191008260809318
:100DF000910080919100816080939100809190009A
:100E00008160809390008091A10082608093A10016
:100E10008091A10081608093A1008091A0008160F9
:100E20008093A000809121018260809321018091B4
:100E30002101816080932101809120018160809354
:100E4000200180917A00846080937A0080917A00FA
:100E5000826080937A0080917A00816080937A002A
:100E600080917A00806880937A001092C100E091AE
:100E7000FF02F0910003C2E0C083E091FB02F09119
:100E8000FC021082E091FD02F091FE0283E3808378
:100E900010920703E0910303F091040386E080833E
:100EA000E0910103F0910203808180618083E091F1
:100EB0000103F0910203808188608083E091010347
:100EC000F0910203808180688083E0910103F091BA
:100ED000020380818F7D80838FE292E00E94B404C0
:100EE0008AE392E00E94B40483E080938E03C0936F
:100EF0008F03EDE2F2E02491E7EEF1E084918823A4
:100F000099F090E0880F991FFC01E653FE4FA591E0
:100F1000B491FC01E055FE4F859194918FB7F89400
:100F2000EC91E22BEC938FBF80918F0390E0FC015A
:100F3000E65DFD4F24918C519E4FFC0184918823E6
:100F4000C1F090E0880F991FFC01E653FE4FC59158
:100F5000D491FC01E055FE4FA591B4919FB7F89450
:100F60003881822F809583238883EC91E22BEC9348
:100F70009FBF81E08093900381E592E00E94B404DA
:100F80008EE692E00E94AC050E94DB030E94AE0553
:100F900087E792E00E94AC0584E10E9439040E9438
:100FA000AE0588E892E00E94AC0585E00E94390415
:100FB0000091910310919203209193033091940337
:100FC000601B710B820B930B0E94F60942E050E00C
:100FD0000E949E0586E992E00E94AC0585E00E9491
:100FE0003904009191031091920320919303309161
:100FF0009403601B710B820B930B0E94F6092091E6
:1010000095033091960340919703509198030E9465
:101010004C0941E050E00E949E0580E090E8AEE07F
:10102000B5E48093950390939603A0939703B093B0
:1010300098038AE00E9439040E94F6090E94BE09C2
:10104000609391037093920380939303909394031E
:1010500084EA92E00E94B4048EE692E00E94AC051D
:101060000E94DB030E94AE0587E792E00E94AC0578
:1010700084E10E9439040E94AE0588E892E00E9453
:10108000AC0585E00E943904009191031091920310
:101090002091930330919403601B710B820B930B8F
:1010A0000E94F60942E050E00E949E0586E992E027
:1010B0000E94AC0585E00E943904009191031091D3
:1010C00092032091930330919403601B710B820B68
:1010D000930B0E94F609209195033091960340915D
:1010E0009703509198030E944C0941E050E00E9400
:1010F0009E0580EC92E00E94B4048AEC92E00E948B
:10110000AC0581E00E943904009191031091920393
:101110002091930330919403601B710B820B930B0E
:101120000E94F60920919503309196034091970310
:10113000509198030E944C0941E00E94C20488ED3E
:1011400092E00E94AC058AE00E943904009191036C
:10115000109192032091930330919403601B710BC3
:10116000820B930B0E94F609209195033091960310
:1011700040919703509198030E944C0941E050E040
:101180000E949E0560E080918E030E94300361E022
:1011900080918E030E94300368EE73E080E090E05F
:1011A0000E94830360E080918E030E9430030E94BE
:1011B0006F02A3CF5058BB27AA270E94F2080C94B5
:1011C0006C0A0E945E0A38F00E94650A20F039F429
:1011D0009F3F19F426F40C945B0A0EF4E095E7FBAC
:1011E0000C94550AE92F0E947D0A58F3BA1762073A
:1011F00073078407950720F079F4A6F50C949F0AED
:101200000EF4E0950B2EBA2FA02D0B01B901900121
:101210000C01CA01A0011124FF27591B99F0593F65
:1012200050F4503E68F11A16F040A22F232F342FAD
:101230004427585FF3CF469537952795A795F040FB
:101240005395C9F77EF41F16BA0B620B730B840B10
:10125000BAF09150A1F0FF0FBB1F661F771F881FC8
:10126000C2F70EC0BA0F621F731F841F48F4879520
:1012700077956795B795F7959E3F08F0B0CF939512
:10128000880F08F09927EE0F9795879508950E948B
:10129000310A08F481E008950E9460090C946C0AF8
:1012A0000E94650A58F00E945E0A40F029F45F3FF0
:1012B00029F00C94550A51110C94A00A0C945B0A65
:1012C0000E947D0A68F39923B1F3552391F3951B8E
:1012D000550BBB27AA2762177307840738F09F5F57
:1012E0005F4F220F331F441FAA1FA9F335D00E2EC4
:1012F0003AF0E0E832D091505040E695001CCAF731
:101300002BD0FE2F29D0660F771F881FBB1F2617F3
:1013100037074807AB07B0E809F0BB0B802DBF01CA
:10132000FF2793585F4F3AF09E3F510578F00C9499
:10133000550A0C94A00A5F3FE4F3983ED4F38695D7
:1013400077956795B795F7959F5FC9F7880F911DBA
:101350009695879597F90895E1E0660F771F881FA6
:10136000BB1F621773078407BA0720F0621B730B59
:10137000840BBA0BEE1F88F7E09508950E94C5090B
:101380006894B1110C94A00A08950E94850A88F00F
:101390009F5798F0B92F9927B751B0F0E1F0660F39
:1013A000771F881F991F1AF0BA95C9F714C0B1307A
:1013B00091F00E949F0AB1E008950C949F0A672F54
:1013C000782F8827B85F39F0B93FCCF386957795A9
:1013D0006795B395D9F73EF4909580957095619592
:1013E0007F4F8F4F9F4F0895E89409C097FB3EF4BD
:1013F00090958095709561957F4F8F4F9F4F992362
:10140000A9F0F92F96E9BB279395F69587957795DF
:101410006795B795F111F8CFFAF4BB0F11F460FF9F
:101420001BC06F5F7F4F8F4F9F4F16C0882311F0F7
:1014300096E911C0772321F09EE8872F762F05C00B
:10144000662371F096E8862F70E060E02AF09A95A6
:10145000660F771F881FDAF7880F9695879597F99B
:101460000895990F0008550FAA0BE0E8FEEF161635
:101470001706E807F907C0F012161306E407F50788
:1014800098F0621B730B840B950B39F40A2661F0FC
:10149000232B242B252B21F408950A2609F4A1409F
:1014A000A6958FEF811D811D089597F99F6780E8AC
:1014B00070E060E008959FEF80EC089500240A94A6
:1014C0001616170618060906089500240A9412161F
:1014D0001306140605060895092E0394000C11F452
:1014E000882352F0BB0F40F4BF2B11F460FF04C0FF
:1014F0006F5F7F4F8F4F9F4F089557FD9058440F58
:10150000551F59F05F3F71F04795880F97FB991F62
:1015100061F09F3F79F0879508951216130614061F
:10152000551FF2CF4695F1DF08C0161617061806AC
:10153000991FF1CF86957105610508940895E89487
:10154000BB2766277727CB0197F908950E94310AB8
:1015500008F48FEF08950E94BE0A0C946C0A0E9452
:101560005E0A38F00E94650A20F0952311F00C9471
:10157000550A0C945B0A11240C94A00A0E947D0A5F
:1015800070F3959FC1F3950F50E0551F629FF001D6
:10159000729FBB27F00DB11D639FAA27F00DB11DEF
:1015A000AA1F649F6627B00DA11D661F829F222778
:1015B000B00DA11D621F739FB00DA11D621F839FFF
:1015C000A00D611D221F749F3327A00D611D231FD5
:1015D000849F600D211D822F762F6A2F11249F5723
:1015E00050409AF0F1F088234AF0EE0FFF1FBB1F26
:1015F000661F771F881F91505040A9F79E3F5105E5
:1016000080F00C94550A0C94A00A5F3FE4F3983ED6
:10161000D4F3869577956795B795F795E7959F5F8E
:10162000C1F7FE2B880F911D9695879597F9089520
:101630000E94310A880B990B0895A1E21A2EAA1B69
:10164000BB1BFD010DC0AA1FBB1FEE1FFF1FA21772
:10165000B307E407F50720F0A21BB30BE40BF50B6F
:10166000661F771F881F991F1A9469F760957095F8
:10167000809590959B01AC01BD01CF010895052E89
:1016800097FB1EF400940E94560B57FD07D00E9452
:101690001D0B07FC03D04EF40C94560B509540954F
:1016A000309521953F4F4F4F5F4F0895909580950E
:1016B000709561957F4F8F4F9F4F0895EE0FFF1FDD
:1016C000881F8BBF0790F691E02D19940F931F93FD
:1016D000CF93DF938230910510F482E090E0E091A7
:1016E0009B03F0919C0330E020E0B0E0A0E0309755
:1016F00099F42115310509F44AC0281B390B24300F
:101700003105D8F58A819B816115710589F1FB014D
:1017100093838283FE0111C0408151810281138134
:1017200048175907E0F04817590799F4109761F0E6
:1017300012960C93129713961C933296CF01DF9159
:10174000CF911F910F91089500939B0310939C03D9
:10175000F4CF2115310551F04217530738F0A90194
:10176000DB019A01BD01DF01F801C1CFEF01F9CF23
:1017700090939C0380939B03CDCFFE01E20FF31F58
:10178000819391932250310939832883D7CF2091B7
:10179000990330919A03232B41F420910202309156
:1017A000030230939A032093990320910002309111
:1017B00001022115310541F42DB73EB740910402D5
:1017C00050910502241B350BE0919903F0919A0387
:1017D000E217F307A0F42E1B3F0B2817390778F008
:1017E000AC014E5F5F4F2417350748F04E0F5F1F67
:1017F00050939A0340939903819391939FCFF0E084
:10180000E0E09CCFCF93DF930097E9F0FC013297A3
:1018100013821282A0919B03B0919C03ED0130E0F2
:1018200020E01097A1F420813181820F931F209135
:10183000990330919A032817390709F061C0F09392
:101840009A03E0939903DF91CF910895EA01CE17AF
:10185000DF07E8F54A815B819E0141155105B1F72B
:10186000E901FB83EA8349915991C40FD51FEC1715
:10187000FD0761F4808191810296840F951FE90133
:1018800099838883828193819B838A83F0E0E0E05F
:1018900012968D919C9113970097B9F52D913C91DB
:1018A0001197CD010296820F931F209199033091D9
:1018B0009A032817390739F6309751F510929C038F
:1018C00010929B03B0939A03A0939903BCCFD38348
:1018D000C28340815181840F951FC817D90761F4D5
:1018E0004E5F5F4F88819981480F591F5183408314
:1018F0008A819B81938382832115310509F0B0CFC2
:10190000F0939C03E0939B039ECFFD01DC01C0CFCD
:0A19100013821282D7CFF894FFCFA4
:10191A0000009D0380000000000002026C01990192
:10192A004F02CA01A801BC0100000000B603DC0591
:10193A000D0A006E616E00696E66006F7666004879
:10194A00583731312044656D6F00496E6974696199
:10195A006C697A696E6720746865207363616C6567
:10196A00004265666F72652073657474696E6720DC
:10197A00757020746865207363616C653A007265DE
:10198A0061643A20090900726561642061766572B2
:10199A006167653A200909006765742076616C758C
:1019AA00653A2009090067657420756E6974733A8F
:1019BA002009090041667465722073657474696E42
:1019CA006720757020746865207363616C653A00DE
:1019DA0052656164696E67733A006F6E652072655D
:1019EA006164696E673A0900097C206176657261F3
:0619FA0067653A090000D8
:00000001FF
